:1000000038260020E9060000E5060000050900008A
:1000100000000000000000000000000000000000E0
:100020000000000000000000000000004D0800007B
:10003000000000000000000091080000E908000036
:10004000E5060000E5060000E5060000E506000004
:10005000E5060000E5060000E5060000E5060000F4
:10006000E5060000E5060000E5060000E5060000E4
:10007000E5060000E5060000E5060000E5060000D4
:10008000E5060000E5060000E5060000E5060000C4
:10009000E50600000000000000000000E50600008A
:1000A000E506000000000000E5060000000000007A
:1000B0000000000010B5064C2378002B07D1054B3B
:1000C000002B02D0044800E000BF0123237010BDC4
:1000D0000400002000000000B40C0000084B10B524
:1000E000002B03D00749084800E000BF0748036819
:1000F000002B00D110BD064B002BFBD09847F9E731
:100100000000000008000020B40C0000B40C000047
:1001100000000000094B196800290BD1EFF3108093
:10012000074A002805D172B6BFF35F8F05490870F2
:10013000012111701A6801321A60704720000020F6
:100140002400002000000020084B1A68013A1A60C1
:100150001B68002B09D1064B1B78002B05D0012210
:10016000044B1A70BFF35F8F62B670472000002007
:100170002400002000000020F7B50125002701AC75
:10018000084E210013206570A7702570B0478022AB
:10019000054B12039A6121001C2027706570B0473F
:1001A000F7BDC046AD0100000044004107B5802204
:1001B00001AB1A700A785A704A789A708A781900D6
:1001C000DA70014B984707BD8906000010230249E9
:1001D000CA681A42FCD070470008004070B5082871
:1001E00006D800F08FFC0805052E2E120B152600F0
:1001F0000024200070BD154B1C69FAE7144B154C08
:100200001B6A9B059B0FDC40F3E7104B5C69F0E732
:100210000E4D00242B689B07EBD50F4B98472B689E
:100220005B0711D520000D4B9847AC68A4B244433E
:10023000DFE70B4B00241B785B07DAD5034BDC6848
:10024000D7E780242402D4E7064CD2E72800002018
:100250000008004000127A00CD010000D105000026
:1002600050080040006CDC0270B584780278457854
:10027000012040260540204080240849AD010B6A3A
:10028000C001B3432B43A34303430320024004486C
:100290001202034013430B6270BDC04600080040C9
:1002A000FFFCFFFFF8B5082806D800F02BFC14056A
:1002B000050C0E1A072034001720F8BD0223194A36
:1002C000116A0B4313620020F7E70223154A916974
:1002D0000B439361F7E70223124A118A0B431382FF
:1002E000F1E702230F4A918A0B439382EBE7022244
:1002F00000240D4E0B4D33680C4F13433360AA841A
:10030000B847B368EB627368AB62AC84B8473368D4
:100310009BB2AB84D7E70223054A11780B431370D5
:10032000D1E7C0460008004028000020CD010000B1
:10033000440800407FB5C2221E21194BD2009A60AA
:10034000184A0024536801AD8B43536001232B707E
:10035000E0B22900144B01349847252CF8D1002431
:100360006B4601265C709E701C7068460F4B984768
:100370000F4B062098470F4B98470F4B29001C72D4
:100380005C729C72DC72062320002B700B4B6E603B
:100390006C702C726C7298472000094B98477FBD97
:1003A0000008004000400041B5050000690200005F
:1003B000A5020000D103000000040040F10300008A
:1003C00095040000014B5878C0097047000C0040AC
:1003D0000823054A91690B4393610123034A137073
:1003E00011781942FCD1704700040040000C004015
:1003F000F8B50C784B782402060005000443002B66
:1004000002D08023DB021C434B7A002B02D08023D6
:100410001B031C434B68012B12D95D1E1D40022299
:10042000002D06D01D02802335439B0207E00135D5
:1004300052009A42FBD380232D0235435B031C43B9
:100440000B7A002B02D080239B031C430C4FB84730
:100450000028FBD10B4B98470B4B1E70B847002868
:10046000FCD10A4B9D601D00B8470028FCD18022BA
:100470006B68520213401C436C60054B9847F8BDF3
:10048000C503000015010000080C0040000C0040EE
:100490004901000070B50500094CA0470028FBD1B8
:1004A000084B9847084B1D70A0470028FCD18023BB
:1004B000064A5B0251680B435360054B984770BD79
:1004C000C503000015010000040C0040000C0040B2
:1004D00049010000F7B50700184EB0470028FBD1CE
:1004E000174B9847174B1F700193B0470028FCD15A
:1004F000154D164B6868C004C00E98470400019B58
:100500001F706B68DB02DB0F0193114B1F70B0474C
:100510000028FCD1AD680F4B9847019B2D022D0C94
:10052000002B08D1012D04D9200029000A4B98473F
:1005300004002000FEBD0135EC40FAE7C5030000D1
:1005400015010000040C0040000C0040DD0100001B
:10055000080C004049010000190B000010B5040010
:100560000E4B98470E4B0F4A1C700F4B0F4C588880
:1005700059880005114059805988000F2140598041
:1005800011008022D2015C881442FCD15A880002FA
:100590000A4002435A80064B984710BD15010000DF
:1005A000020C0040FFF0FFFF000C0040FFBFFFFF08
:1005B0004901000010B50C78034B2402044398470E
:1005C000024BA4B25C8010BD5D050000000C004031
:1005D00010B50400064B9847064B1C70064B5C8810
:1005E000064B2405240F98472000054B984710BD63
:1005F00015010000020C0040000C00404901000001
:10060000D5040000D37830B5002B35D11478802C78
:1006100003D0802324065B02234302255478AC4395
:1006200006D19478002C24D18024A4022343416075
:100630005478013C012C01D8124C2340A0248DB2E7
:10064000E4052C431C438462D0240D0C24062C4367
:100650001C438462D478002C0AD15B0303D59378C1
:10066000012B0CD181615378013B012B00D88160B3
:1006700030BDC024E402D9E741600023DEE74161D8
:10068000F1E7C046FFFFFBFF10B503000A00440975
:10069000C1090020814202D10449E00140181F2114
:1006A0000B401E399940024B984710BD0044004151
:1006B000050600007047000010B5054B9847054B34
:1006C0009847054B9847054B9847054B984710BDF1
:1006D0003503000079010000B5060000B5060000F2
:1006E000B5060000FEE700002148224970B58842A7
:1006F00004D00023204CCA18A24232D300211F4B41
:100700001F4A934231D3FF211E4B1F4A8B439360F4
:1007100002220C25082430261C4B1D485A62C3783F
:10072000FC398B431343C370C378AB432343C3707B
:10073000184B987BB0430600202030439873987B79
:10074000A84304439C73987B884302439A73802395
:10075000114A51680B435360104B9847104B984710
:10076000FEE7C55804331560C5E702C3C9E7C046B4
:10077000B40C000000000020040000200400002051
:10078000340600200000000000ED00E0FC70004195
:10079000005000410048004100400041310C000081
:1007A000AD0A000080220B1F52041A60043B0A00AD
:1007B0001860002312200C3A1360043A1060043AC7
:1007C0000F381060043A01381060043A01381060A4
:1007D000043A13600B000722243B1A60043B013AE1
:1007E0001A60043B013A1A60043B013A1A60043B68
:1007F00007321A60043B013A1A60043B013A1A605E
:100800000823403908000B607047000010B50A4B00
:10081000002098470022FA21084B094C1B7A8900D6
:100820002260D840074B9847074B80B201381860C8
:100830000723236010BDC046D5040000000400401B
:1008400010E000E0190B000014E000E0F0220D4B76
:10085000120419680A431A60F022196812060A4342
:100860001A6009490868F0C8A046A946B246BB46C6
:10087000F0C880F30988054962B60847034962B6A3
:100880000847C04620ED00E044000020FDFFFFFFC8
:10089000EFF309801038F0C044464D4656465F4697
:1008A0002038F0C010380E49086080220A4B12052B
:1008B0001A600A4B98470A490868F0C8A046A9463A
:1008C000B246BB46F0C880F30988064962B60847BD
:1008D000044962B60847C04604ED00E0F109000093
:1008E00044000020FDFFFFFF10B5044B9847802215
:1008F000034B52051A6062B610BDC046350A0000AF
:1009000004ED00E0FEE7000030B500230C250849A7
:10091000084C5A181079002805D02A004243A21822
:10092000127A002A03D0013B1A1DF2D1087830BD9B
:10093000800000205000002070B50D0004A90C7844
:100940000F2B14D99B00D118094B98470C21094A49
:1009500013780133DBB259431370074A8D50521894
:1009600000215060117254725181044A135570BDB8
:10097000A507000042000020500000208000002059
:1009800000280FD072B6084B1A780C235A43074B35
:100990009B1801221A7280225881054B52051A6059
:1009A00062B662B67047C0464C000020500000207E
:1009B00004ED00E0FEE70000084B10B59847084B37
:1009C000084A18700C2343430748C0184368136053
:1009D000064A136062B600DF10BDC0460909000078
:1009E0004C0000204800002050000020440000205F
:1009F000F8B50C25094F0A4E3B780A4C6B43326818
:100A0000E3185A60084B98474543084B641918701F
:100A1000074A6368387033601360F8BD4C000020EB
:100A2000440000205000002009090000850000203B
:100A3000480000200D4A1388013313800C4B0D4AE7
:100A400019780C234B4308339B18002900D17047B9
:100A50005A88002A05D0013A92B25A80002A00D161
:100A60001A700139C9B20C3BEFE7C04640000020C4
:100A70004200002050000020F7B56B4680279C1DE7
:100A800000233F032380FA202388064E01339BB2C4
:100A9000238080007761044DA847FA20B761800069
:100AA000A847F0E7004400418109000013B50B4B53
:100AB000984701230A4A00930A4927330A480B4CF6
:100AC000A04700230A4A00930A4928330A48A0474E
:100AD0000A4B98470A4B9847FEE7C046B906000004
:100AE00068020020780C0000790A00003909000033
:100AF00088000020850C0000B50900000D080000EA
:100B0000B909000002B4714649084900095C49006E
:100B10008E4402BC7047C046002243088B4274D307
:100B200003098B425FD3030A8B4244D3030B8B42EE
:100B300028D3030C8B420DD3FF22090212BA030CF7
:100B40008B4202D31212090265D0030B8B4219D3D8
:100B500000E0090AC30B8B4201D3CB03C01A5241F8
:100B6000830B8B4201D38B03C01A5241430B8B4240
:100B700001D34B03C01A5241030B8B4201D30B0329
:100B8000C01A5241C30A8B4201D3CB02C01A524150
:100B9000830A8B4201D38B02C01A5241430A8B4213
:100BA00001D34B02C01A5241030A8B4201D30B02FC
:100BB000C01A5241CDD2C3098B4201D3CB01C01A16
:100BC000524183098B4201D38B01C01A5241430920
:100BD0008B4201D34B01C01A524103098B4201D30E
:100BE0000B01C01A5241C3088B4201D3CB00C01A7B
:100BF000524183088B4201D38B00C01A52414308F3
:100C00008B4201D34B00C01A5241411A00D2014617
:100C1000524110467047FFE701B5002000F006F88A
:100C200002BDC0460029F7D076E770477047C0463E
:100C300070B500260C4D0D4C641BA410A64209D1C2
:100C4000002600F027F80A4D0A4C641BA410A642A7
:100C500005D170BDB300EB5898470136EEE7B300FD
:100C6000EB5898470136F2E7A00C0000A00C0000FA
:100C7000A00C0000A40C0000546172656661207035
:100C80006973636100546172656661206F63696FA7
:100C900073610000F8B5C046F8BC08BC9E467047BA
:100CA000DD000000F8B5C046F8BC08BC9E467047A1
:040CB000B50000008B
:040CB400010000003B
:04000003000006E90A
:00000001FF
